:1000000000000420215F01001D5F01001F5F01004F
:100010001D5F01001D5F01001D5F01000000000069
:100020000000000000000000000000001D5F010053
:100030001D5F0100000000002D5B0100196F010031
:100040001D5F01001D5F01001D5F01001D5F0100BC
:100050001D5F01001D5F01001D5F01001D5F0100AC
:100060001D5F01001D5F01001D5F01001D5F01009C
:100070001D5F01001D5F01001D5F01001D5F01008C
:100080001D5F01001D5F01001D5F01001D5F01007C
:100090001D5F01001D5F01001D5F01001D5F01006C
:1000A0001D5F01001D5F01001D5F01001D5F01005C
:1000B0001D5F01009D670100716701001D5F010068
:1000C0001D5F01001D5F01001D5F01001D5F01003C
:1000D0001D5F01001D5F01001D5F01001D5F01002C
:1000E0001D5F01001D5F01001D5F01001D5F01001C
:1000F00000000000F5670100D96E0100D56E010017
:10010000D16E0100C56E01001D5F01001D5F010081
:100110001D5F01001D5F0100F16E0100ED6E010029
:10012000E96E0100DD6E01001D5F01001D5F010031
:100130001D5F01001D5F01001D5F01001D5F0100CB
:100140001D5F01001D5F01001D5F01001D5F0100BB
:100150001D5F01001D5F01001D5F01001D5F0100AB
:100160001D5F01001D5F01001D5F01001D5F01009B
:100170001D5F01001D5F01001D5F01001D5F01008B
:100180001D5F01001D5F01001D5F01001D5F01007B
:100190001D5F01001D5F01001D5F01001D5F01006B
:1001A0001D5F01001D5F01001D5F01001D5F01005B
:1001B0001D5F01001D5F01001D5F01001D5F01004B
:1001C0001D5F01001D5F01001D5F01001D5F01003B
:1001D0001D5F01001D5F01001D5F01001D5F01002B
:1001E0001D5F01001D5F01001D5F01001D5F01001B
:1001F0001D5F01001D5F01001D5F01001D5F01000B
:100200001D5F01001D5F01001D5F01001D5F0100FA
:100210001D5F01001D5F01001D5F01001D5F0100EA
:100220001D5F01001D5F01001D5F01001D5F0100DA
:100230001D5F01001D5F01001D5F01001D5F0100CA
:100240001D5F01001D5F01001D5F01001D5F0100BA
:100250001D5F01001D5F01001D5F01001D5F0100AA
:100260001D5F010010B5054C237833B9044B13B161
:100270000448AFF300800123237010BD1005002057
:1002800000000000982B0300084B10B51BB1084973
:100290000848AFF300800848036803B910BD074B56
:1002A000002BFBD0BDE81040184700BF0000000045
:1002B00014050020982B0300982B03000000000079
:1002C00070B50C461546064628B125F03DFB0146A3
:1002D000304600F0FBFE2946204600F0CFFE38B144
:1002E000034630220349044824F07CFF4FF0FF30DE
:1002F00070BD00BF5B9202006292020008B5034627
:1003000006280FD8DFE800F017041906080A0C00C9
:10031000042008BD062008BD072008BD082008BD30
:10032000032008BD4FF490720549064824F05AFF97
:100330004FF0FF3008BD002008BD052008BD00BFFC
:100340004892020080920200421E08B50346052A28
:100350000ED8DFE802F014030507090B1C2008BDC6
:10036000202008BD302008BD402008BD102008BD59
:10037000FF220449044824F035FF002008BD142062
:1003800008BD00BFA69C0200AA92020038B505462F
:100390000C4689B180B14A6808300C3102F0A9F9E5
:1003A00008B10F4B09E0A26804F5867105F114004D
:1003B00002F09FF948B1F4E70A4B0B490B484FF4A0
:1003C000117224F00FFF064838BD284604F0B4F837
:1003D00028B1034640F24A2203490548F1E738BDF7
:1003E0000200FFFF0700FFFF2C9202003193020082
:1003F0000693020008B5034681B1A0F58072B2F5FC
:10040000E06F06D94FF49F720549064824F0EAFED2
:1004100004E04FF403730B60002008BD024808BDE0
:100420008E9C0200929302000700FFFFF8B5079C24
:10043000069D1F461CB111B10AB103B125B94FF495
:10044000C9721049104809E0B0EBC20F02D3B0EBFB
:10045000C50F07D20B490D484FF4CC7224F0C2FEF1
:100460000B48F8BD6260A56004F10C0024F0A9F807
:100470002A46394604F5867024F0A3F8054B23601C
:100480000020F8BDB99C0200269402004B940200A3
:100490000700FFFF785634122DE9F043B3B09846B9
:1004A0000F461646DDF8E8909DF8EC30044650B152
:1004B00049B142B1B9F1000F05D0B8F1000F07D131
:1004C000D9F8002022B140F26122834983485EE0DE
:1004D0002168834A914207D040F265227E498148D3
:1004E00024F080FE8048F4E00A2B0CD00B2B42D085
:1004F000002B40F0E38040F2792277497B4824F0DA
:1005000071FE7B48E5E00022114605A803F0F0FFEC
:10051000214605A8FFF73AFF044630B105A804F0CC
:1005200051FC23464FF4217245E007A802F0DBF8A6
:10053000D9F80030984202D940F28A2249E006F107
:100540000B039842069007D233464FF42472624957
:10055000684824F047FE9BE023468DE8C001224610
:10056000654905A804F056FA034608B90024ACE032
:100570004FF426729CE09DF8F0502846FFF7BEFE2F
:10058000431C024607D154495C4840F2A22224F0A1
:1005900029FE5B489DE0012105A803F0A9FF214643
:1005A00005A8FFF7F3FE044650B105A804F00AFCC5
:1005B000234640F2AB224849524824F013FE87E01C
:1005C00007A802F090F8D9F80030984207D940F215
:1005D000B12241494C484D4C24F004FE75E0012DF8
:1005E00006900CD0022D0CD0032D0CD0042D0CD075
:1005F000052D0CD0062D14BF0022202208E0282251
:1006000006E0382204E0402202E0602200E080227E
:10061000811E8A421AD2012D0CD0022D0CD0032D3E
:100620000CD0042D0CD0052D0CD0062D14BF0023AA
:10063000202308E0282306E0382304E0402302E0DA
:10064000602300E08023CB1A9E4223D9012D0CD0D9
:10065000022D0CD0032D0CD0042D0CD0052D0CD068
:10066000062D14BF0023102308E0142306E01C23EA
:1006700004E0202302E0302300E04023C00001908A
:10068000009340F2BA2233461349214824F0AAFDD0
:10069000204C1AE000231A468DE8C001164905A82F
:1006A00004F0B8F9034600283FF460AF40F2C222DC
:1006B00009491948194C24F095FD06E040F2CA2278
:1006C000054917480A4C24F08DFD05A804F07AFB73
:1006D000204633B0BDE8F083CD9C02002F95020088
:1006E000785634125A9502000200FFFF81950200ED
:1006F0000100FFFF0C960200C10200006596020097
:100700000700FFFFAA950200E39502000B00FFFF20
:100710008F9602000900FFFF389602000000FFFFDD
:10072000C99602002DE9F04FB5B0174605919B46DA
:100730003E9C429D9DF8FC909DF80061DDF804A16F
:10074000804630B12DB121B11AB1BBF1000F00D0FC
:1007500024B94FF47F725E495E4837E002685E4B11
:100760009A4207D04FF4806259495C4824F03AFD20
:100770005B48AAE0A9F11403012B0AD900232B70CE
:1007800040F20A424B465249564824F02BFD564847
:100790009BE03046FFF7D8FD87420BD001232B703A
:1007A00040F2124200903B464949504824F01AFD5D
:1007B0004F488AE03046FFF7A1FD431C064609D1A9
:1007C000002343494B482B704FF4836224F00AFD09
:1007D00049487AE0B9F1140F02460CBF002101210B
:1007E00007A803F085FED8F8042008F10C0109A839
:1007F00001F07FFF38B9D8F8082008F586710CA8F9
:1008000001F077FF50B100232B703149344B3B4846
:1008100040F2254224F0E6FC314C53E007A803F0F7
:100820008BFE034620B140F22B4229493448F1E7C0
:1008300009A801F058FF844205D0234640F2314216
:10084000234930480CE0B9F1140F08940BD107F19B
:100850000B039C4217D21E492B483B464FF487623C
:1008600024F0C0FC0DE00AF102031F44BC420AD28E
:10087000E4000094534640F23E421549234824F0D8
:10088000B1FC1B4C1EE0059B0293F6B20023CDF891
:100890000CB0019300961A46194607A804F070FAA6
:1008A00040B1034640F2494209491948194C24F025
:1008B00099FC07E001232B70044607A804F082FA94
:1008C000204602E000232B70F7E735B0BDE8F08F3B
:1008D000E49C0200959A020078563412BF9A0200F6
:1008E0000200FFFFE59A02000100FFFF149B0200D7
:1008F0000900FFFF459B02000700FFFF5E9C02000E
:100900006E9B02009A9B0200C59B0200F09B0200B6
:10091000279C02000000FFFF08B5034639B940F2EA
:1009200005221249124824F05DFC124808BD072830
:100930000FD80122824012F0C70F12D112F0180F07
:1009400007D040F2132209490B4824F04BFC0B4816
:1009500008BD40F216220549074824F043FC084828
:1009600008BD4FF49E730B60002008BD019D02007E
:10097000169D02000700FFFF3D9D02000100FFFFE2
:100980000300FFFF2DE9F3470A9E0C9C05468A46AB
:100990000B98914602B124B940F2272243494448BA
:1009A0002BE026F00803102B0AD0202E08D0334667
:1009B0004FF40B723D493F4824F014FC3E4872E06E
:1009C0003E4F2368BB420BD16368032B08D03BB179
:1009D0004FF40D7235493A4824F004FC394862E07E
:1009E000072D30D8DFE805F038041826262F1F1F02
:1009F00038B92E49344840F23D2224F0F3FB334805
:100A000051E004F1100300F1100250F8041B43F808
:100A1000041B9042F9D11FE00028F2D140F2462297
:100A200022492B48E9E70028EBD14FF414721F4903
:100A30002848E2E72B4640F259221C49264824F078
:100A4000D1FB26482FE02B4640F25D22174924486F
:100A500024F0C8FB234826E004F12408404600F0B7
:100A600059FCC4F80CA0F20049464046BAF1000F08
:100A700004D1022D02D0AB1F012B02D800F05AFC8A
:100A800001E000F051FD48B100902B4640F26F228A
:100A90000649154824F0A6FB144804E0012320620F
:100AA00025726360276002B0BDE8F087DDA6020012
:100AB0006A9D0200929D02000900FFFF78563412E1
:100AC000BC9D02000D00FFFFE39D02000700FFFF39
:100AD0000A9E0200319E0200589E02000100FFFFA4
:100AE0003D9D02000300FFFF899E02000000FFFF02
:100AF0002DE9F047804688B0894615461C4623B943
:100B000040F282225549564812E008B101B13AB983
:100B100040F286225149534824F064FB524899E040
:100B20001A68524B9A4207D04C49514840F28B22E6
:100B300024F058FB4F488DE063685A1E012A07D9FC
:100B400040F2912245494C4824F04CFB4B4881E04F
:100B5000E768237A003718BF0127072B5ED8DFE844
:100B600003F00420365D5D5D444F15F00F0603D0A1
:100B70002B4640F29F2219E004F1240A09EB0603F8
:100B800008EB06023946504601F0D8F8034620B17A
:100B900040F2A72231493A4855E01036B542EDD827
:100BA00055E02B0708D02B4640F2B1222B4935489F
:100BB00024F018FB34484DE08DE8000304F11003E5
:100BC0002A46394604F1240001F0C5F82EE004ABB2
:100BD00002910190009304F1200204F110032946D0
:100BE00004F1240001F098F920E08DE8000304F1FD
:100BF00010032A46394604F1240001F04FF915E0AC
:100C000004F110030291019000932A4604F120039D
:100C1000394604F1240001F00BF907E040F2D92233
:100C20000E491A4824F0DEFA194813E078B1E26858
:100C3000237A22B140F2DE220849164803E0074930
:100C400015484FF4387224F0CDFA144802E002231C
:100C50006360002008B0BDE8F08700BFEAA602008C
:100C6000B99E0200DD9E02000700FFFF7856341295
:100C7000029F02000400FFFF289F02000D00FFFFFB
:100C80007D9F0200519F02000900FFFFA69F020006
:100C90000100FFFFD79F020004A002000000FFFF39
:100CA00008B538B94FF44E720649074824F09AFA4D
:100CB000064808BD4FF49E72002123F0A8FC0020D6
:100CC00008BD00BFF39C02002EA602000700FFFF34
:100CD00008B5034631B90B2209490A4824F082FAC3
:100CE000094808BD421E052A06D9192204490748A9
:100CF00024F078FA064808BDE8230B60002008BD00
:100D0000A4AA02000AA702000700FFFF2DA7020005
:100D10000300FFFFF8B506460C4631B927222749E4
:100D2000274824F05FFA2748F8BD274D0B68AB42EF
:100D30000AD14B68032B07D033B12F221F49234818
:100D400024F050FA2248F8BD731E052B27D8DFE89F
:100D500003F0030C1326261D04F11007384604F097
:100D600071F8384604F07CF821E004F110073846A9
:100D700005F0E0F8012105E004F11007384605F020
:100D8000D9F80021384605F0E3F810E004F1100727
:100D9000384602F02EFF384602F03AFF07E03346AD
:100DA000612206490B4824F01DFA0B48F8BD0123C7
:100DB0002672636025600020F8BD00BFBAAA020059
:100DC0005BA702000400FFFF785634127DA70200E3
:100DD0000D00FFFFA5A702000300FFFF10B514469A
:100DE0001AB97122254926480FE038B931B1762267
:100DF0002249244824F0F6F9234810BD2268234BE9
:100E00009A4206D01D4922487C2224F0EBF9214861
:100E100010BD63685A1E012A06D9822217491E484E
:100E200024F0E0F91D4810BD237A5A1E052A19D86E
:100E3000DFE802F0030A0A1818110A46014604F115
:100E4000100005F011F814E00A46014604F1100004
:100E500005F070FC0DE00A46014604F1100003F0B5
:100E60006DFA06E0B42205490D4824F0BBF90D489F
:100E700010BD02236360002010BD00BFFAA602006F
:100E8000D4A70200F8A702000700FFFF785634122B
:100E90001DA802000400FFFF43A802000D00FFFF91
:100EA0006DA802000300FFFF38B50C4619B9C22235
:100EB0002A492B480EE030B9C5222849294824F098
:100EC00091F9294838BD0A68284B9A4206D023492F
:100ED0002748CA2224F086F9264838BD4B685A1E96
:100EE000012A06D9D0221D49234824F07BF9234842
:100EF00038BD0B7A5A1E052A22D8DFE802F0030D0E
:100F00000D21211704F110050146284604F0B0FF19
:100F1000284603F09BFF1BE004F11005014628461C
:100F200005F00CFC284605F009F811E004F1100565
:100F30000146284603F006FA284602F05EFE07E066
:100F40004FF4817205490E4824F04CF90D4838BD24
:100F50000020032384E8090038BD00BF95AA0200E1
:100F60009EA80200C9A802000700FFFF78563412AD
:100F7000F3A802000400FFFF18A902000D00FFFF04
:100F800041A902000300FFFF70B51646BAB01C4627
:100F90000D4601B902B93CB94FF489722B492C486E
:100FA00024F020F92B484FE0431E052B44D8DFE8FE
:100FB00003F003161B43433004A803F043FF04A8C7
:100FC00003F04EFF3246294604A804F04DFF04A862
:100FD000214604F04DFF04A803F038FF17E004A8F1
:100FE00004F0A8FF012103E004A804F0A3FF0021FE
:100FF00004A804F0ADFF3246294604A805F09AFB88
:1010000004A8214605F09AFB04A804F097FF0020ED
:101010001AE004A802F0EDFD04A802F0F9FD324642
:10102000294604A803F08AF904A8214603F08AF9A6
:1010300004A802F0E2FDEAE703464FF4AE7203496A
:10104000054824F0CFF805483AB070BD85AA0200E3
:1010500071A902000700FFFF9CA902000300FFFF27
:10106000034A04491368044800FB031010607047EA
:10107000000000205FF36E3C0D661900F8B50C46C9
:10108000074600B131B916220D490E4824F0AAF8DE
:101090000D48F8BDFFF7E4FF3D193E46AE42A6EB12
:1010A00007040BD0A30701D1FFF7DAFFE40004F037
:1010B000180420FA04F406F8014BEFE70020F8BD0D
:1010C000F4AA0200C8AA02000700FFFF70B502469A
:1010D000002321F00305141AA54202F104020FD9DE
:1010E00012F8036C12F8044C44EA0624634012F828
:1010F000024C83EA044312F8014C83EA0463EAE7F2
:101100000219141AA14203D912F8014B6340F8E7FF
:10111000014A0020136070BD000000202DE9F04F4F
:10112000ADF6140D012300220DF5826004A940F8EC
:10113000232041F8223013F0800118BF1B2183EADD
:10114000430301324B40B2F5807FDBB2EED1664CF7
:101150000123002213F0800144F8223018BF1B2124
:10116000013281EA43030A2ADBB2F3D15F4E604DBC
:1011700063233370002385F86330012450F8243052
:1011800004AAC3F1FF0352F823E04FEAEE1141EA4B
:101190004E01C9B2CA1142EA4102D2B2D31143EAA6
:1011A0004203DBB28EF0630EDF118EEA010147EAE3
:1011B00043074A405340FAB253403355EC5401348C
:1011C000B4F5807FDAD1836B0193436A0293C76AD7
:1011D000436BDFF818E1DFF82CC1DFF82C81DFF872
:1011E0002C91DFF82CA1DFF808B10393002212F84C
:1011F0000E0010F0800F14BF1B21002181EA400176
:101200000304C9B243EA00234B40414043EA01636F
:101210004CF822304FEA336348F822304FEA336308
:1012200049F822304FEA33634AF822301BF8023083
:101230009400D3B10DF58261019851F8231045183F
:10124000FF2095FBF0F6C6EB0626AE1B04AD55F865
:101250002650029E314491FBF0F0C0EB0020091AA9
:1012600004A850F82110090201E01D4619464D401E
:1012700083B10DF58261039851F823100144FF20DA
:1012800091FBF0F0C0EB0020081A04A951F82010DF
:10129000090400E019464D4073B10DF5826151F823
:1012A0002330FF213B4493FBF1F1C1EB0121591A9B
:1012B00004AB53F821301B065D400E4BE5500E4B3E
:1012C0004FEA3565E5500D4B4FEA3565E550013283
:1012D0000B4B4FEA3565B2F5807FE55087D10DF6AF
:1012E000140DBDE8F08F00BF2C150020581500200C
:1012F0005822002058160020581A0020581E00209E
:10130000582300202C0500202C0900202C0D002043
:101310002C1100204FF48C72002123F078B938B1E1
:1013200000F58C730022984202D002700130FAE777
:1013300070470000F8B5794E336804460F461546ED
:101340001BB9FFF7EBFE01233360C02D07D0B5F5C5
:10135000807F06D0802D40F0DB800A2302E00C2342
:1013600000E00E23236004F1080363606D0900228E
:10137000AA4210D007EB820188784E78C978000421
:1013800040EA062017F82260304340EA016043F843
:1013900022000132ECE722680C2A31D00E2A66D0F6
:1013A0000A2A40F0B8805E4F5E4E0025DC6857F890
:1013B00025101A685140C4F307220135B05C220E93
:1013C0004140B25C81EA0241E2B20A2DB25C81EA9C
:1013D0000261C4F3074203F11003B25C81EA022206
:1013E00053F80C1C1A6082EA010253F8081C5A6078
:1013F00082EA01029A6082EA0402DA60D6D18AE0C7
:10140000474E484D002456F8241058691A684A403F
:10141000C0F307210134695C4A40010E082C695C65
:1014200082EA0142C1B203F11803695C82EA0162F7
:10143000C0F30741695C82EA012253F8141C1A6068
:1014400082EA010253F8101C5A6082EA010253F842
:101450000C1C9A6082EA010253F8081CDA6082EAE6
:1014600001021A6182EA00025A61CCD153E02C4E8B
:101470002C48002556F82510DC691A685F68514031
:10148000C4F307220135825C5140220E072D825C95
:1014900081EA0241E2B203F12003825C81EA026147
:1014A000C4F30742825C81EA022153F8182C1960C8
:1014B00081EA070153F8147C596081EA020187EA46
:1014C0000107FAB29960DF60825C53F8101C81EA70
:1014D00002014FEA1762825C81EA0261C7F30722C8
:1014E000C7F30747825C81EA0221C25D81EA0242BA
:1014F00053F80C1C1A6182EA010253F8081C5A6165
:1015000082EA01029A6182EA0402DA61B2D102E05F
:101510006FF01F00F8BD0020F8BD00BF541500207B
:101520002C150020581500202DE9F04FC9B00446B5
:1015300002A80D461646FFF7EDFE04F108036360AE
:101540003246294602A8FFF7F5FE804600284CD116
:101550000299039821600A0183188258A2605A6890
:10156000E2609A682261D868606104F11802DFF8CD
:101570009090214CDFF88CA0DFF88CB00139103B43
:1015800000292ADD1D1FA2F1040E03F10C0C55F8F1
:10159000040FC6B2AC45A75D4FEA1066A65D019682
:1015A000164E56F82770019E59F8266087EA0607FE
:1015B000C0F30726C0F30740A65D205C5AF82660FA
:1015C00086EA07065BF8207086EA07064EF8046F85
:1015D000DDD110320139103BD2E71968116059682A
:1015E000516099689160DB68D36002A8FFF797FEAD
:1015F000404649B0BDE8F08F58150020581600202D
:1016000058230020581A0020581E00202DE9F04FC2
:1016100043680D681C688E680068DFF884A3DFF8F3
:1016200078E385EA040B4D685C686C409D6885B082
:1016300075404010CE68D968013871400190D44E91
:1016400053F8100F02900198DFF85483DFF844C379
:1016500000284FEA11601F465FFA8BF903F120035F
:10166000039040F3BF80CB48039F5AF8298050F87D
:10167000277088EA070853F8207C88EA0708C4F333
:101680000727C5F3074C56F8277088EA07075EF866
:101690002C805FFA84FC87EA08084FEA1B675AF837
:1016A0002C9050F82770C5F3072C89EA070953F8E6
:1016B0001C7C89EA070756F82C90C1F3074C87EA8F
:1016C00009075EF82C905FFA85FC87EA0909270E66
:1016D0005AF82CC050F827708CEA070C53F8187C85
:1016E0008CEA0707C1F3072C2D0E56F82CC050F8D2
:1016F000255087EA0C07C9B2CBF3074C5AF82110E2
:101700005EF82CC087EA0C0781EA050CCBF30725AD
:1017100053F8141C56F82550C4F307448CEA010111
:101720005EF82440694081EA040C4FEA1C615FFACC
:1017300088F450F821105AF82440614053F8104CB6
:101740004C40C9F30721FDB256F821105AF8255034
:101750004C40C7F307415EF8211084EA010B5FFAA1
:1017600089F44FEA18615AF8244050F8211061407A
:1017700053F80C4C4C40C7F307213F0E56F821108C
:101780004C40CCF307415EF821104C404FEA196100
:10179000C9F3074950F8211050F827704D4053F80D
:1017A000081C6940CCF307255FFA8CFC56F82550DD
:1017B0006940C8F30745C8F307285EF825504D4037
:1017C0005AF82C104F4053F8041C794056F82870F2
:1017D00079405EF829707940019F013F01971F68A9
:1017E000029730E70B0E58F829005CF82330DFF839
:1017F000A0E1694E4340029883EA0009C4F307233D
:10180000E0B25EF8233058F8200089EA0309C5F3F6
:1018100007435FFA85FA56F8233058F82AA089EA78
:1018200003094FEA1B635CF8233058407B68434050
:10183000C5F307202D0E5EF820004340C1F307409A
:1018400056F820004340200EC4F307445CF8200003
:1018500056F824408AEA000AB8688AEA0000C1F310
:10186000072AC9B25EF82AA058F821805CF8251032
:1018700088EA0105F9686940CBF3072580EA0A0088
:101880005EF82550694061405FFA89F5434CCBF31F
:10189000074A14F805E056F82AA03D690E0E8EEAB4
:1018A000050514F806E0C3F3072680EA0A0085EA76
:1018B0000E6514F806E0C0F3074685EA0E2514F815
:1018C00006E085EA0E4EDDB2665D7D6975404FEA41
:1018D0001966A65D85EA0665C0F30726A65D85EA5A
:1018E0000625C1F30746A65D85EA0646C5B2000E89
:1018F00014F805C0BD698CEA05054FEA136CC3F303
:10190000074314F80CC0205CE35C85EA0C65C1F366
:10191000072CC9B214F80CC085EA0C25C9F3074C92
:10192000C9F3072914F80CC085EA0C4514F801C066
:10193000F9698CEA010181EA006114F8090082F872
:1019400000E081EA002181EA03434FEA1E21517041
:101950004FEA1E419170310A5171310C9171290A7F
:101960005172290C9172190A4FEA1E6E1671157286
:10197000360E2D0E13735173190C1B0E82F803E0F3
:10198000D671D5729173D37305B0BDE8F08F00BFE7
:101990002C0900202C1100202C0D002058150020AF
:1019A0002C0500202DE9F74F43680D681C6800687E
:1019B000DD4EDFF880E385EA040A4D685C6885EA5D
:1019C000040B8D689C6840106C40CD68D968013864
:1019D00069400090D54D53F8100F01900098DFF842
:1019E0005083DFF848C300281F465FFA8AF003F1EE
:1019F00020034FEA1B6940F3C2800746CC4850F8E9
:101A0000278055F8297088EA070853F8207C88EA6F
:101A10000708C1F30727C4F3074C56F8277088EA74
:101A200007075EF82C805FFA8BFC87EA0808270E10
:101A300050F82C9055F82770CAF3072C89EA07094B
:101A400053F81C7C89EA070756F82C90C1F3074C21
:101A500087EA09075EF82C905FFA84FC87EA090997
:101A60000F0E50F82CC055F827708CEA070C53F86D
:101A7000187C8CEA0707CBF3072CC9B256F82CC0A8
:101A800050F8211087EA0C07CAF3074C4FEA1A6A8C
:101A90005EF82CC087EA0C0755F82AC0C4F3072467
:101AA00081EA0C0C53F8141C56F824408CEA01010E
:101AB0006140CBF307445EF8244081EA040C5FFAEE
:101AC00088F44FEA196150F8244055F8211061401C
:101AD00053F8104C4C40CCF3072156F821104C40E1
:101AE000C7F307415EF8211084EA010A5FFA89F41E
:101AF000390E50F8244055F821104C4053F80C1C76
:101B00006140C8F3072456F824406140CCF30744F1
:101B10005EF8244081EA040BFCB24FEA1C6150F8E5
:101B2000244055F821104C4053F8081C6140C9F37B
:101B300007245FFA8CFC56F824406140C8F3074440
:101B40004FEA18685EF824404C4050F82C1055F8C5
:101B500028C0C7F3072781EA0C0C53F8041C56F879
:101B60002770C9F307498CEA010179405EF82970B2
:101B70007940009F013F00971F6801972EE758F8B2
:101B800020005CF82930684E6A4D4340019883EA92
:101B90000009C1F307235FFA8BF056F8233058F899
:101BA000200089EA0309C4F307435FFA84FE55F86D
:101BB000233058F82EE089EA0309230EC4F30724E2
:101BC0005CF8233056F8244058407B684340CAF301
:101BD000072056F820004340C1F3074055F8200085
:101BE0004340080EC9B25CF8200058F821808EEA04
:101BF000000EB8688EEA0000CBF3072E56F82EE0F0
:101C000080EA0E00CAF3074E1E0E55F82EE080EA59
:101C10000E004FEA1A6E5CF82E1088EA010EF96881
:101C20008EEA01016140CBF3074455F824405FFA86
:101C300089F56140404C14F805E03D698EEA0505E0
:101C400014F806E0C1F3072685EA0E6514F806E0ED
:101C5000C0F3074685EA0E2514F806E085EA0E4E25
:101C6000DDB2665D7D697540060EA65D85EA066596
:101C7000C9F30726A65D85EA0625C1F30746A65DDA
:101C800085EA0646C5B2C0F3072014F805C0BD6951
:101C90008CEA05054FEA116CC9B214F80CC0205C3F
:101CA00085EA0C65C3F3072CC3F3074314F80CC093
:101CB000E35C85EA0C25C9F3074C4FEA196914F86F
:101CC0000CC085EA0C4514F801C0F96914F80970D4
:101CD00082F800E08CEA010181EA076181EA0021D3
:101CE00081EA03434FEA1E2151704FEA1E41917071
:101CF000310A5171310C9171290A5172290C91727A
:101D0000190A4FEA1E6E16711572360E2D0E1373D8
:101D10005173190C1B0E82F803E0D671D5729173C2
:101D2000D37303B0BDE8F08F581A00205823002069
:101D300058160020581E00205822002010B50129F6
:101D4000144621461A4602D1FFF760FC01E0FFF776
:101D500029FE002010BD2DE9F04F85B098461307ED
:101D600081460F4616460E9D0F9C5CD119B92A4636
:101D70000DF1100B29E06B1E4DE018685968F44610
:101D8000ACE8030008335345E646F6D1234600216C
:101D90004846FFF7D3FF631E08F1FF3104F10F003F
:101DA00013F801EF11F8012F83428EEA02021A7034
:101DB000F6D142463B4603CB5B45106051601F465F
:101DC00002F10802F6D152461034B31ADD4205D0B2
:101DD0001346EE4602F1100A6F46CEE7002024E0DB
:101DE00013F801EF10F8012FAB428EEA020201F85E
:101DF000012FF5D12346224639464846FFF79EFF7C
:101E0000434604F1100254F8041B43F8041B9442A7
:101E1000F9D1103E2B46002EE0D008F1FF30611EB4
:101E200003F11005DCE76FF0210005B0BDE8F08F8D
:101E30002DE9F04708ADE0CD824698461C6806EBD8
:101E4000020989B1013F22E024B92A4629465046B9
:101E5000FFF7DCFB2B5D16F8012B534007F8013B25
:101E60002A55013404F00F044E45EDD111E024B998
:101E70002A4629465046FFF7C9FB2A5D16F8013B62
:101E8000534007F8013F2B55013404F00F044E4531
:101E9000EDD1C8F800400020BDE8F0872DE9F04FF3
:101EA00087B08146109D119E0F461C46013E05EBF2
:101EB000020803F1100A0DF1150B454528D0234601
:101EC0000DF1040E18685968724603C20833534571
:101ED0009646F7D1224621464846FFF797FB17B9A9
:101EE0002B788DF81430227815F8013B012F83EA06
:101EF000020306F8013F08BF8DF8143022460DF1A9
:101F0000050353F8041B42F8041B5B45F9D1D4E7E1
:101F1000002007B0BDE8F08F2DE9F84F0B9DDDF8EC
:101F20002880DDF830901468824617461E4605EB7F
:101F3000010B5D451CD054B118F8042015F8013B85
:101F40000134534009F8013B04F00F04F1E7424625
:101F500031465046FFF75AFB06F1100313F8012DE6
:101F60000132D2B21A70002AE6D19E42F6D1E3E7DE
:101F70003C600020BDE8F88F036830B5CD1A002D15
:101F800002DC6FF05F0030BD1C7814F0800F04D1CC
:101F90005C1C04601B78136032E004F07F04013C99
:101FA000032C34D8DFE804F00208111D012DE8D01D
:101FB0005C781460023322E0022DE2DD5D789C78CB
:101FC00044EA05241460033319E0032DD9DD9C781D
:101FD0005D78240244EA0544DD782C431460043320
:101FE0000DE0042DCDDD9C785D78240444EA056481
:101FF0001D792C43DD7844EA052414600533036021
:102000000368C91A13688B42BBD8002030BD6FF03B
:10201000630030BD70B404680E1B002E07DD267807
:102020009E4207D10134046070BCFFF7A5BF6FF07A
:102030005F0001E06FF0610070BC704737B50123AD
:10204000154601AA0446FFF7E5FF68B9019B012B7D
:1020500008D1236813F8012B003218BF01222A602F
:10206000236001E06FF0630003B030BD37B5022399
:10207000154601AA0446FFF7CDFFC0B9019B013BFD
:10208000032B12D8236893F90030002B0DDB286056
:102090000198431E019350B12368296813F8012B5E
:1020A00042EA01222A602360F2E76FF0630003B086
:1020B00030BD70B5032304460E461546FFF7AAFF50
:1020C000D0B913689BB1013B1360226812782A7162
:1020D000072A0FD8226801322260AA6022681344BE
:1020E0009E42236014BF6FF06500002070BD6FF04A
:1020F0005F0070BD6FF0630070BD38B50323044608
:102100001546FFF787FF58B913685A1E012B2A603E
:1021100004D923685A1C2260187808B16FF0670050
:1021200038BD2DE9F34115461F4601AA3023044668
:102130000E46FFF76FFF68BB2268019B13449E4267
:102140001DD06FF0650025E023689E421AD91B78E8
:102150002B6042463B4631462046FFF75BFFC8B93D
:102160002368AB6022686B6813449E422360EBD9FE
:102170001021012021F0B8FFE86048B1054605F1C3
:102180000408E1E70020E86023689E4202D0D8E717
:102190006FF0690002B0BDE8F081F7B517461D4643
:1021A00001AA302304460E46FFF734FF002838D139
:1021B0002368F61A002E2FDD019E19783A461E4438
:1021C00042F8041B062331462046FFF723FF40BB9D
:1021D0002368BB6021687A688B189E42236006D111
:1021E00005F10C039D4215D028700135FAE7895C92
:1021F0002A46013342F8041B204623603146FFF78C
:10220000BBFE70B92368AB6022686B6813449E42C2
:10221000236004D1002004E06FF05F0001E06FF064
:10222000650003B0F0BD0023F0B516461C4684429D
:1022300016D0D6F800E0C3EB0E05356051F82470D7
:10224000BD422CBF4FF0000C4FF0010CED1B73454D
:1022500094BF63460CF1010346F8045B0134E6E7E2
:1022600002EB840243B11168C81A8B4242F8040B96
:1022700094BF00230123F5E7F0BDF0B587B0864693
:10228000019300230391029205938446BCF10F0F42
:1022900040F2CA8003980299059A019B50F8044BBA
:1022A0004FF000050E68E3FB0425B71845F1000266
:1022B00041F8047B50F8044B4FF000050E68E3FB37
:1022C0000425B71845F1000241F8047B50F8044B8F
:1022D0004FF000050E68E3FB0425B71845F1000236
:1022E00041F8047B50F8044B4FF000050E68E3FB07
:1022F0000425B71845F1000241F8047B50F8044B5F
:102300004FF000050E68E3FB0425B71845F1000205
:1023100041F8047B50F8044B4FF000050E68E3FBD6
:102320000425B71845F1000241F8047B50F8044B2E
:102330004FF000050E68E3FB0425B71845F10002D5
:1023400041F8047B50F8044B4FF000050E68E3FBA6
:102350000425B71845F1000241F8047B50F8044BFE
:102360004FF000050E68E3FB0425B71845F10002A5
:1023700041F8047B50F8044B4FF000050E68E3FB76
:102380000425B71845F1000241F8047B50F8044BCE
:102390004FF000050E68E3FB0425B71845F1000275
:1023A00041F8047B50F8044B4FF000050E68E3FB46
:1023B0000425B71845F1000241F8047B50F8044B9E
:1023C0004FF000050E68E3FB0425B71845F1000245
:1023D00041F8047B50F8044B4FF000050E68E3FB16
:1023E0000425B71845F1000241F8047B50F8044B6E
:1023F0004FF000050E68E3FB0425B71845F1000215
:1024000041F8047B50F8044B4FF000050E68E3FBE5
:102410000425B71845F1000241F8047B05920291AA
:102420000390ACF1100C31E70EF00F0EBEF1070F68
:1024300066D903980299059A019B50F8044B4FF016
:1024400000050E68E3FB0425B71845F1000241F8CA
:10245000047B50F8044B4FF000050E68E3FB0425A5
:10246000B71845F1000241F8047B50F8044B4FF0D7
:1024700000050E68E3FB0425B71845F1000241F89A
:10248000047B50F8044B4FF000050E68E3FB042575
:10249000B71845F1000241F8047B50F8044B4FF0A7
:1024A00000050E68E3FB0425B71845F1000241F86A
:1024B000047B50F8044B4FF000050E68E3FB042545
:1024C000B71845F1000241F8047B50F8044B4FF077
:1024D00000050E68E3FB0425B71845F1000241F83A
:1024E000047B50F8044B4FF000050E68E3FB042515
:1024F000B71845F1000241F8047B05920291039060
:102500000EF0070EBEF1000F15D003980299059A40
:10251000019B50F8044B4FF000050E68E3FB0425C7
:10252000B71845F1000241F8047B0592029103902F
:102530000EF1FF3EE6E7029A1168059B0B4442F854
:10254000043B05998B4234BF012300230593F3D349
:1025500007B0F0BD20B10123036000234360836016
:10256000704710B5044688B1806850B16368024670
:10257000002113F1FF3302D311600432F9E721F097
:10258000F7FF0123236000236360A36010BD42F2C4
:10259000107399422DE9F04105460E4603D96FF0BC
:1025A0000F00BDE8F0814468A1421AD904213046E9
:1025B00021F09AFD80460028F1D0AF6877B1A200E3
:1025C000394621F0FEFF3B46002214F1FF3402D3CE
:1025D0001A600433F9E7384621F0CAFF6E60C5F887
:1025E00008800020BDE8F0818842F8B506460F4615
:1025F00020D08C6814B9FFF7B4FF1DE04968013999
:1026000019B154F82130002BF9D03B6833604D1CD0
:1026100029463046FFF7BBFF044668B97268014699
:102620009200B06821F0F3FFAA00B968B06821F009
:10263000C8FF01E00020F8BD2046F8BD70B50E4689
:1026400001210446FFF7A3FF054688B962680146E9
:102650009200A06821F0DBFFA36886EAE672002EF4
:10266000A2EBE6721A60B4BF4FF0FF330123236080
:10267000284670BD70B5002345681946A94210D0A0
:10268000826852F82140002224FA02F6F60706D4A6
:102690000132202A03F10103F6D10131EEE7184699
:1026A00070BD002070BD436810B5D3B103F1804206
:1026B000013A591E9200836821B19C58043A0CB922
:1026C0000139F8E753F821004FF00042002310428F
:1026D00004D10133202B4FEA5202F8D1C3EB41134E
:1026E0002033184610BD08B5FFF7DDFF0730C008DE
:1026F00008BDF8B506460D4617460024BC4201D079
:102700002B5D5BB1391B11F0030318BF012303EBF1
:1027100091013046FFF73BFFF0B901E00134EDE7EE
:1027200001463046FFF78AFFB0B9EA19511BBB1AC0
:10273000A1422B4410D94FEA930C12F8011DD6F890
:1027400008E0DB0003F0180301FA03F35EF82C1035
:102750000B434EF82C30E9E7F8BDF8B514460546B2
:102760000F46FFF7C0FFA042064616D822460021BA
:10277000384621F04CFF3C440023B3420BD09F0865
:10278000A868DA0002F0180150F82720CA4004F8BF
:10279000012D0133F1E70020F8BD6FF00700F8BD0F
:1027A000F8B506460C464D0901F01F07FFF77BFF01
:1027B00073682044B0EB431F01D875B90BE010F0EB
:1027C0001F0118BF012101EB50113046FFF7DFFE5A
:1027D0000028F2D0F8BDF7B91BE0736803F180421E
:1027E000013A6FF0030192006943AB4206D9B06829
:1027F0008418013B64588450043AF6E703F180439F
:10280000013B9B000022191DE5D0B168CA50043B72
:10281000F9E70020F8BD7468AA000023C7F1200E74
:10282000A542F6D2B068815801FA07FC4CEA0303CE
:1028300083500135043221FA0EF3F1E74268F0B516
:102840004D09954201F01F0101D805D1D9B10021F0
:10285000BDE8F040FFF7F2BE15B10024531B08E0BD
:1028600049B302F18043013B9B000024C1F12007E2
:1028700014E09C4209D28668671956F8277046F81A
:1028800024700134F5E7B2B10B469C000025934259
:10289000E6D28668013335510434F8E75AB18668C8
:1028A000F55825FA01FE4EEA0404F450013A043BBF
:1028B00005FA07F4F2E70020F0BD436870B503F1B4
:1028C0008042013A92002BB18468A458043A0CB9B2
:1028D000013BF8E74C6804F18042013A9200C4B130
:1028E0008D68AE58043A0EB9013CF8E79C420BD310
:1028F00013D90BE0A2F1040208D3013B93B1816824
:102900008C58A9588C42F5D9012070BD4FF0FF308A
:1029100070BD181C18BF012070BD03F18042013A40
:102920009200EBE7184670BD2DE9F04F85B01646D2
:1029300003930E9B5A68736801339A4281468B4613
:1029400051D30E9B986800284DD09200002121F0B1
:102950005EFE0E9BD6F804A09B680093DBF8043063
:10296000009D534528BF53460AF101070193BF005C
:1029700000245445D9F808001BD0DBF8081050F8A3
:1029800024802A680B68019803FB0823039A5343A9
:1029900002932A464346FFF770FC029BB1682A4621
:1029A0005046FFF76AFC45F8048B0023EB510134D5
:1029B000DFE7009B391F0B443A46194621F001FE20
:1029C00031464846FFF779FF0028B3BF0E9BD9F880
:1029D0000820B1689A68B8BFD9F808102046FFF7F8
:1029E00022FC002001E06FF0030005B0BDE8F08F8D
:1029F000436870B503F18042013A92002BB18468BC
:102A0000A458043A0CB9013BF8E74C6804F1804241
:102A1000013A920064B38D68AE58043A0EB9013C95
:102A2000F8E79C4201D2026825E0096801D94A42D0
:102A300021E00268002A01DD002914DB002901DD04
:102A4000002A12DB03F180410139890093B18468C7
:102A500066586C58A6420ED8A1F1040101D2524228
:102A600009E0013BF2E7012205E04FF0FF3202E00E
:102A7000002BD8D11A46104670BD1FB581EAE1730C
:102A8000A3EBE17300290093B4BF4FF0FF330123A0
:102A9000019301A901230293CDF80CD0FFF7A8FF01
:102AA00005B05DF804FB90422DE9F041064615465D
:102AB00006D0884205D0FFF797FD074608B149E0E8
:102AC0000D466C680123336004F18043013B9B0099
:102AD0002CB1AA68D258043B0AB9013CF8E7214658
:102AE0003046FFF754FD0746002833D1B368D5F8C8
:102AF00008C018463D463946A1420FD002685CF82E
:102B000021E0AD1875442CBF0122002240F8045B7F
:102B10000131AE4594BF1546551CEDE74FEA8408D8
:102B20004344BDB17268944204F1010406D32146C6
:102B30003046FFF72CFD60B9B36843441A682A4455
:102B4000954243F8042B94BF0025012508F10408A1
:102B5000E7E707463846BDE8F081F0B50F4685B097
:102B60000646114638461546FFF7A7FE002830DB1B
:102B700001230193B5424FF000030293039306D162
:102B8000294601A8FFF730FD0446E8B901ADB74278
:102B900007D168680123336000F18043013B9B004B
:102BA0000BE039463046FFF71FFD044660B9F0E7F9
:102BB000AA68D258043B12B901380028F8D1B2688B
:102BC000A968FFF730FB002401A8FFF7CAFC2046E4
:102BD00001E06FF0090005B0F0BDF8B50C681368AE
:102BE000634305460F46164613D511463846FFF790
:102BF00064FE002805DB324639462846FFF7ADFF64
:102C000009E03A4631462846FFF7A7FF28B9644253
:102C100002E0FFF748FF00B92C60F8BDF8B50C687A
:102C200013686343002B05460F46164613DD114615
:102C30003846FFF742FE002805DB32463946284673
:102C4000FFF78BFF09E03A4631462846FFF785FF3C
:102C500028B9644202E0FFF726FF00B92C60F8BDF6
:102C60002DE9F04786B00023154688424FF0010257
:102C700081460E468DE80C0002930392049305935F
:102C800006D16846FFF7B0FC044600284DD16E46D9
:102C9000A94507D1494603A8FFF7A6FC044600282A
:102CA00043D103ADD6F804A00AF18043013B9B0059
:102CB000BAF1000F06D0B268D258043B12B90AF13B
:102CC000FF3AF5E76F6807F18043013B9B002FB1A6
:102CD000AA68D258043B0AB9013FF8E70AEB07019A
:102CE0004846FFF754FC0446F8B901464846FFF74A
:102CF000A5FC0446C8B907F1804808F1FF384FEA3F
:102D000088086FB1AB68D9F8082053F80830B1686B
:102D100042445046FFF7B1FA013FA8F10408F0E73A
:102D200032682B685343C9F8003003A8FFF719FC39
:102D30006846FFF716FC204606B0BDE8F0871FB5D1
:102D40000123009201AA01930293CDF80CD0FFF762
:102D500087FF05B05DF804FB2DE9F04F9BB00F46EF
:102D600001900021184690460393FFF786FE002845
:102D700000F0A4810024012603990B9640460C9490
:102D80000D940E960F941094119612941394149619
:102D900015941694179618941994FFF78EFDA04277
:102DA00016DA019B0BB94FB910E021460198FFF7E5
:102DB00045FC0446002840F07081F4E7414638465F
:102DC000FFF712FC0446002840F06781002077E1FD
:102DD00041460BA8FFF708FC0446002840F05D813F
:102DE0000EAD03992846FFF7FFFB0446002840F08C
:102DF0005481D8F804100E96023111A80B96FFF7F3
:102E0000C6FB0446002840F04881014611A8FFF7A0
:102E100015FC0446002840F04081022114A8FFF769
:102E2000B6FB0446002840F03881032117A8FFF7BD
:102E3000AEFB0446002840F030812846FFF733FC03
:102E400000F01F001F2813D0C0F11F0319460BA864
:102E50000293FFF7A5FC0446002840F01E8102996A
:102E60002846FFF79DFC0446002840F0168100E04C
:102E700002940C9EDDF83CA006F1FF390AF1FF3305
:102E8000C3EB090B00934FEA4B13194628460693F0
:102E9000FFF786FC0446002840F0FF804FEA8B0BCA
:102EA00029460BA8FFF7A4FD00280EDB139951F863
:102EB0000B20013241F80B200BA92A460846FFF7E8
:102EC000ADFE04460028EBD0E7E006992846FFF760
:102ED000B5FC0446002840F0E080009B9B00069370
:102EE000043B06F18045089306F10063013D013B78
:102EF00006F18046CAEB0505023ECAEB030AAD00A7
:102F00004FEA4A1AB600009B994540F2A080331D53
:102F100006980D99109A09931258CB58139893421A
:102F200003D34FF0FF3343511BE0284407908859E7
:102F30009AB1059300230493DDE904BC4BEA000B2E
:102F40005846614620F022FF00234FF0FF328B42AB
:102F500008BF824203D2104601E04FF0FF30079BCA
:102F60001860139A535901335351331F9B46139AD8
:102F70005359013B5351002114A8FFF75FFB002870
:102F800040F088800099169B109A11B10899515809
:102F900000E000991960069952585A60139B14A9D1
:102FA00008465A59FFF7CBFE0146002874D117A8EE
:102FB000FFF744FB00286DD1B9F1010F0D9A199B61
:102FC0001CBF594650581860915959600999525878
:102FD0009A6017A914A8FFF70BFD0028C7DC139B04
:102FE0000EA95A5914A8FFF7AAFE002852D151463B
:102FF00014A8FFF7D5FB00284CD10BA9084614AA4A
:10300000FFF70CFE0146002846D10BA8FFF735FD5F
:10301000002815DA0EA914A8FFF7E6FA002839D11E
:10302000514614A8FFF7BCFB002833D10BA914AA02
:103030000846FFF7D2FD68BB139A5359013B535121
:1030400009F1FF39043DAAF1200A043E5BE7019B28
:103050005BB111A91846FFF7C7FAD8B9039BD8F896
:1030600000201B685343019A1360B7B102990BA863
:10307000FFF7E4FB70B9D8F800300B930BA9384682
:10308000FFF7B2FA014638B93846FFF7F6FC20B927
:1030900001233B60044600E00C460BA8FFF761FAF1
:1030A0000EA8FFF75EFA11A8FFF75BFA14A8FFF766
:1030B00058FA17A8FFF755FA204601E06FF00B0009
:1030C0001BB0BDE8F08F70B504460E4610460021D7
:1030D0001546FFF7D2FC002822DB2B46324621465C
:1030E0000020FFF739FE30B170BD2A462146204648
:1030F000FFF773FDB0B900212046FFF7BEFC0028A2
:10310000F3DB05E02A4621462046FFF787FD48B954
:1031100029462046FFF76CFC0028F3DA002070BD3A
:103120006FF0090070BD2DE9F04FADF2546D064609
:103130000F461846002104921D46FFF79EFC00280A
:10314000C0F20782AB68D3F8008018F0010F00F0DE
:10315000008200210498FFF790FC0028C0F2F9815A
:1031600008F10204640004F008044444032104FB51
:1031700008F3C3F10203013903FB04F4F7D101237F
:103180004FF4C06214A8089309910A910B930C9113
:103190000D910E930F91109121F039FA0498FFF7D9
:1031A00082FAB0F5287F0AD2EF280BD84F280CD826
:1031B00017288CBF4FF0030B4FF0010B07E04FF0C7
:1031C000060B04E04FF0050B01E04FF0040B6B68B9
:1031D00003F1010841463046FFF7D9F903460028BC
:1031E00040F08F81414617A8FFF7D1F90346002828
:1031F00040F087814FEA48010BA8FFF7C8F9034662
:10320000002840F07E813B68059301330AD139469E
:103210000EA8FFF7E9F90346002840F07281012368
:103220000E930EAFDDF878360BB19B682BBB0121F6
:1032300008A8FFF703FA0346002840F06281696896
:1032400008A88901FFF7ACFA0346002840F059812D
:1032500008A92A460846FFF736FF0346002840F033
:103260005081DDF8783683B108AB03CBDDF87826E2
:10327000106018685160906007E0DDF878261068EB
:10328000516808AB03C39068186029463846FFF7B9
:10329000AFFB002818DB2A46394617A8FFF713FFB3
:1032A0000346002840F02D8164420DF12C0923468D
:1032B000CDF800902A4608A917A8FFF735FB03466A
:1032C000002840F01E8104E0394617A8FFF78CF96A
:1032D000E6E708A93046FFF787F90346002840F0E3
:1032E000108107AB01271393CDF8009023462A469F
:1032F00011A93046079711971297FFF715FB034660
:10330000002840F0FE80BB4509D1049B00275B6884
:1033100003930297B946B8460DF12C0A78E00BF1F9
:10332000FF3302939F40696814AB4FF00C0808FB11
:10333000073801314046FFF72AF90346002840F0DC
:10334000E08017A94046FFF74FF90346002840F0F8
:10335000D88082462346CDF800902A464146404612
:10336000FFF7E2FA0346002840F0CB80029B0AF107
:10337000010A5345EED801374FF001094FF00C0810
:1033800014AB09FA0BF908FB07380DF12C0A4F456D
:10339000BBD2696840460131FFF7F9F803460028BF
:1033A00040F0AF80A8F10C014046FFF71DF903463D
:1033B000002840F0A68023464046CDF800A02A46CB
:1033C00017A9FFF7B1FA08F10C080346002840F0EE
:1033D00098800137DBE7039B013B03934FF0200903
:1033E000049B039A9B6853F8223009F1FF3923FAB2
:1033F00009F313F0010319D0029A01320292C2EBD1
:103400000B02934048EA0308029B9B451ED002270B
:10341000B9F1000FE4D1039B002BDCD14FF0010A7E
:103420000AFA0BFA1F460DF12C0940E0002FEFD0ED
:10343000012FE1D12346CDF800A02A46314630467F
:10344000FFF772FA034600285BD1E1E70027234625
:10345000CDF800A02A4631463046FFF765FA03460C
:1034600000284ED10137BB45F1D114A80C212346C9
:1034700001FB0801CDF800A02A463046FFF754FAB8
:10348000034600283DD1012780460290C0E723462D
:10349000CDF800902A4631463046FFF745FA0346FC
:1034A00078BB4FEA480818EA0A0F04D10137029B9B
:1034B0009F42ECD10BE02346CDF800902A4617A995
:1034C0003046FFF731FA03460028EFD019E0012318
:1034D00007931193129307AB1393CDF800902346F3
:1034E0002A4611A93046FFF71FFA034648B9059A44
:1034F000511C06D13260294632463046FFF76DFB3B
:10350000034601220BF1FF3402FA04F402FA0BF530
:103510000C26AC42029307D214AB06FB0430FFF733
:1035200020F80134029BF4E717A8FFF71AF80BA85C
:10353000FFF717F80EA8FFF714F8DDF87826029BBE
:103540000AB1926842B908A80293FFF70AF8029BF1
:1035500002E06FF0030000E018460DF2546DBDE884
:10356000F08FF0B58BB000230126074604A815465E
:103570000196029303930496059306930796089386
:103580000993FFF731F80446002863D1294607A8BC
:10359000FFF72AF8044600285CD104A8FFF76AF870
:1035A000054607A8FFF766F8854228BF0546294665
:1035B00004A8FFF743F9044600284BD1294607A881
:1035C000FFF73CF90446002844D1079604960021F1
:1035D00004A8FFF752FA002831D004A8FFF74AF8F0
:1035E000014604A8FFF72AF90446002832D107A8AB
:1035F000FFF740F8014607A8FFF720F9044648BB4B
:1036000007A904A8FFF7F4F9002809DB04A907AA11
:103610000846FFF7A2FA0446E0B9012104A808E031
:1036200007A904AA0846FFF798FA044690B90121B1
:1036300007A8FFF703F904460028C8D00AE0294686
:1036400007A8FFF7ADF8044620B907A93846FEF7EA
:10365000CBFF044601A8FEF784FF04A8FEF781FF14
:1036600007A8FEF77EFF20460BB0F0BD70B5B1F5A0
:10367000806FADF5806D05460C4616460AD80A46A1
:1036800018466946B04738B9224669462846FFF7CA
:1036900030F801E06FF003000DF5806D70BD2DE98D
:1036A000F04180469CB00F46104600211646FFF7B9
:1036B000E4F9002840F34C810023012532463946C5
:1036C00001A80495059306930795089309930A9515
:1036D0000B930C930D950E930F9301950293039307
:1036E00010951193129313951493159316951793A0
:1036F000189319951A931B93FFF733FF044600287C
:1037000040F00981294601A8FFF7B7F9002840F0E9
:1037100000813246394604A8FFF7D5FC044600284C
:1037200040F0F98004A907A8FEF75EFF04460028D0
:1037300040F0F180314610A8FEF756FF04460028FD
:1037400040F0E980314613A8FEF74EFF04460028FA
:1037500040F0E18029460AA8FEF770FF04460028E1
:1037600040F0D98001460DA8FEF768FF0446002806
:1037700040F0D180014616A8FEF760FF04460028FD
:1037800040F0C980294619A8FEF758FF04460028D2
:1037900040F0C180099B1B68D8074CD4012107A8C1
:1037A000FFF74CF80446002840F0B5800C9B1B68DE
:1037B000DD0710D40F9B1B68DC070CD401210AA87D
:1037C000FFF73CF80446002840F0A58001210DA831
:1037D000FFF734F8DAE70AA910AA0846FFF7FDF95F
:1037E0000446002840F097800DA904AA0846FFF778
:1037F00015FA04460028E1D08DE0012113A8FFF757
:103800001DF80446002840F08680189B1B68D907E5
:1038100016D41B9B1B68DA0712D4012116A8FFF7E8
:103820000DF80446002876D1012119A8FFF706F803
:10383000044600286FD1159B1B68DB07DDD510E01F
:1038400016A910AA0846FFF7C8F90446002862D155
:1038500019A904AA0846FFF7E1F904460028DCD0BC
:1038600059E013A907A8FFF7C3F800281FDB07A931
:1038700013AA0846FFF7D2F9044600284BD10AA93B
:1038800016AA0846FFF7CAF90446002843D119AA28
:103890000DA90846FFF7C2F9044600283BD10021D4
:1038A00007A8FFF7EAF800287FF474AF17E013A920
:1038B00007AA0846FFF7B2F9044660BB16A90AAA90
:1038C0000846FFF7ABF9044628BB0DAA19A9E0E7A3
:1038D00016A932460846FFF780F90446D8B90021F8
:1038E00016A8FFF7CAF80028F2DB06E016A9324650
:1038F0000846FFF793F9044668B9314616A8FFF762
:1039000077F80028F2DA16A94046FEF76DFE044665
:1039100001E06FF00D0404A8FEF723FE07A8FEF7F0
:1039200020FE0AA8FEF71DFE0DA8FEF71AFE01A84C
:10393000FEF717FE10A8FEF714FE13A8FEF711FEFF
:1039400016A8FEF70EFE19A8FEF70BFE204601E0B2
:103950006FF003001CB0BDE8F08113460A46014633
:103960000620FDF711BB13460A4601460120FDF76C
:103970000BBB13460A4601460220FDF705BB134662
:103980000A4601460320FDF7FFBA20F0F1BD07B556
:10399000032001A9FDF79CF930B90199012003B07A
:1039A0005DF804EB20F0A0BB002003B05DF804FB41
:1039B00007B5022001A9FDF78BF930B90199012063
:1039C00003B05DF804EB20F08FBB002003B05DF87E
:1039D00004FB07B5012001A9FDF77AF930B9019977
:1039E000012003B05DF804EB20F07EBB002003B0A3
:1039F0005DF804FB07B5062001A9FDF769F930B9A8
:103A00000199012003B05DF804EB20F06DBB0020AC
:103A100003B05DF804FB0B4601461846FDF744BAB7
:103A20000B46114602461846FDF7D8B90146032059
:103A3000FDF770B901460220FDF76CB9014601207F
:103A4000FDF768B901460620FDF764B920F090BD86
:103A500020F08EBD20F08CBD0338C0B203289ABF81
:103A6000024B53F820000020704700BFCCAB02008F
:103A70000023036043608360704710B5044600B3C1
:103A80000368F3B1406818B15B6A9847002363602C
:103A9000A36873B12268D268002103EB42029A4204
:103AA00002D019700133FAE7A06820F061FD00230D
:103AB000A36004F10C0300229C4202D02270013466
:103AC000FAE710BDF8B5044616460D46A9B1A0B1F7
:103AD0000B6A98470746606088B15EB1E9680220CA
:103AE00020F002FB0646A06020B96B6A3846984772
:103AF000666004E025600020F8BD0248F8BD024879
:103B0000F8BD00BF00AFFFFF80AEFFFF08B530B1CA
:103B1000036823B11B6940689847002008BD01482D
:103B200008BD00BF00AFFFFF08B530B1036823B187
:103B30005B6940689847002008BD014808BD00BF88
:103B400000AFFFFF08B530B1036823B19B6940683F
:103B50009847002008BD014808BD00BF00AFFFFF27
:103B600038B50D46114628B1C4691A462846A04703
:103B7000002038BD004838BD00AFFFFF00B1007A1B
:103B8000704710B5044640B190F904302BB91DF0D0
:103B900081FEB0FA80F04009207110BD10B50446D6
:103BA00030B190F904301BB11DF0ECFE00232371FD
:103BB00010BD08B558B190F9043043B14FF0FF3152
:103BC0001DF04AFB002818BF6FF01D0008BD6FF004
:103BD0001B0008BD08B548B190F9043033B11DF0A1
:103BE000B7FB002818BF6FF01D0008BD6FF01B0069
:103BF00008BD5822002120F00ABD38B100F1580359
:103C00000022984202D002700130FAE770470000AB
:103C1000002303604360084B836003F18833C36073
:103C200003F12943A3F59613A3F68B630361A3F174
:103C300088334361704700BF012345672DE9F04F8A
:103C40008DB04B6801938B680293CB6803930B692B
:103C500004938B6905930B6A06934B6A07938B6AEF
:103C60000893CB6A09934B6B0A93CB6B0B93426916
:103C70000369C668D1F800A0D1F814C0D1F81C902F
:103C8000D1F830E0D1F83880D94D5A404369816885
:103C9000049F32405A40D74B0B4413444169D64AE3
:103CA0000A4401990A440169534406EB736386EAA6
:103CB00001041C404C401444D04A0A44029903EBCE
:103CC00034540A4486EA0301214071401144039AA6
:103CD000354404EBF131154483EA04020A405A40AA
:103CE0002A44C74D3D4401EBB2222B4484EA01052E
:103CF000154065402B44C34D059F654402EB73633B
:103D00002C4481EA02051D404D402C44BE4D3D44EB
:103D100003EB3454294482EA0305254055402944E5
:103D2000BA4D069F4D4404EBF1312A4483EA040561
:103D30000D405D401544B64A3A4401EBB5251344A5
:103D400084EA01022A406240134405EB7362079F34
:103D5000B04B3B441C4481EA050313404B401C44D8
:103D6000089B099FA3F524434F3B02EB34541944AD
:103D700085EA020323406B401944A74B3B4404EB04
:103D8000F1311D4482EA04030B4053401D44A34B10
:103D90000A9F734401EBB5251A4484EA01032B40C2
:103DA00063401A449E4B3B4405EB72621C4481EA1B
:103DB000050313404B401C449A4B0B9F434402EBBA
:103DC0003454194485EA020323406B401944964B4E
:103DD0003B4404EBF1311D4482EA04030B405340A1
:103DE000019F2B44914D01EBB3233D442A4481EACA
:103DF000030525404D40059F2A448D4D03EBF2629B
:103E00003D442C4483EA02050D405D40099F2C444B
:103E1000884D02EBF4543D44294482EA04051D40D8
:103E200055402944844D089F04EBB14155442B442F
:103E300084EA0105154065402B44804D01EB333386
:103E400065442A4481EA030525404D402A447C4DBF
:103E500003EBF2623D442C4483EA02050D405D40D1
:103E60000B9F2C44774D02EBF4543D44294482EAE5
:103E700004051D405540049F2944734D04EBB14196
:103E80003D442B4484EA010515406540079F2B44BF
:103E90006E4D01EB33333D442A4481EA030525404E
:103EA0004D402A446A4D039F03EBF26245442C4483
:103EB00083EA02050D405D402C44664D02EBF4544C
:103EC0003D44294482EA04051D405540069F29448B
:103ED000614D04EBB1413D442B4484EA010515409A
:103EE00065400A9F2B445D4D01EB33333D442A442A
:103EF00081EA030525404D40029F2A44584D03EBBB
:103F0000F2623D442C4483EA02050D405D402C449E
:103F1000544D069F02EBF4544D44294482EA0405B3
:103F20001D405540294404EBB1454F4984EA050B37
:103F300071440B4402EA0B0161400B44ACF5B8211B
:103F4000A1F2BE6105EB33330A4448498BEA030B07
:103F500039445A4403EB32720C4485EA0301514060
:103F6000099F0C444249394402EB74540D4483EADE
:103F7000020161400D443F49019F414404EB354536
:103F80000B4482EA040169400B443B49394405EB88
:103F900073230A4484EA05015940049F0A443749BF
:103FA000394403EB32720C4485EA030151400C445E
:103FB00002EB7451324C089F4C44254483EA0204BE
:103FC0004C40254401EB35442E4D3D442B4482EAC0
:103FD000010565400A9F2B442B4D3D4404EB7323A0
:103FE0002A4481EA04055D402A44284D039F4FE09E
:103FF000EECEBDC178A46AD756B7C7E8DB702024DF
:10400000AF0F7CF52AC68747134630A8019546FDB9
:10401000D8988069AFF7448BBED75C892211906B2A
:10402000937198FD8E4379A62108B44962251EF646
:1040300040B340C0515A5E26AAC7B6E95D102FD6DC
:104040005314440281E6A1D8C8FBD3E7E6CDE121B1
:10405000D60737C3870DD5F4ED145A4505E9E3A912
:10406000F8A3EFFCD9026F678A4C2A8D81F671871D
:1040700022619D6D0C38E5FD44EABEA4A9CFDE4B5C
:10408000604BBBF670BCBFBEC67E9B28FA27A1EA78
:10409000554403EB3272294484EA03055540294410
:1040A000734D3D4402EB71512C4483EA02054D40AF
:1040B000059F2C446F4D3D4401EB34442B4482EA70
:1040C000010565402B4404EB7325079F6A4B3B4475
:1040D0001A4481EA04036B401A44684B0B9F7344F3
:1040E00005EB3272194484EA050353401944644BCA
:1040F0003B4402EB71511C4485EA02034B40029F92
:104100001C44604B3B4401EB34441D4482EA0103F0
:1041100063401D445C4B039F04EB752553441344DB
:1041200065EA010262401344584A05EBB3634A440E
:10413000114463EA04026A401144554A03EBB15149
:104140004244144461EA05025A401444514A01EBC6
:1041500074446244154464EA03024A4015444E4ADA
:1041600004EBF5257244134465EA010262401344EE
:104170004A4A05EBB3633A44114463EA04026A40D5
:104180001144089A019FA2F5801203EBB151A2F6E7
:104190008332144461EA05025A401444404A01EB58
:1041A00074443A44154464EA03024A4015443D4FBE
:1041B000069A04EBF52517443B4465EA010767407E
:1041C0003B44394A0B9F05EBB3633A44114463EA1D
:1041D00004026A401144354F059A03EBB15117446C
:1041E0003C4461EA05075F403C44314A0A9F01EBC9
:1041F00074443A442A4464EA03054D4015442D4F63
:10420000049A04EBF525174465EA010262403B4439
:104210001344099F284A05EBB3633A44114463EA07
:1042200004026A401144254F029A03EBB15117442E
:1042300061EA05025A403C441444079F204A3A442C
:104240001544826801EB74441A4464EA03034B404A
:104250001D440369826026441C444369046106EBE3
:10426000F5261944C66041610DB0BDE8F08F00BF6E
:104270008530EFD4051D880439D0D4D9E599DBE623
:10428000F87CA21F6556ACC4442229F497FF2A4348
:10429000A72394AB39A093FCC3595B6592CC0C8FD8
:1042A000D15D84854F7EA86FE0E62CFE144301A308
:1042B000A111084E827E53F735F23ABDBBD2D72A00
:1042C00091D386EB03682DE9F041054603F03F00EA
:1042D00013449A422B6084BF6B6801330E46144628
:1042E00088BF6B6078B1C0F1400797421BD805F1D9
:1042F00018083A46404420F064F941462846FFF742
:104300009DFC3E44E41B2746E11B3F2F314404D96A
:104310002846FFF793FC403FF6E7A30906EB831618
:10432000A4EB831400203CB11835224631462844C2
:10433000BDE8F04120F045B9BDE8F0810AB1FFF7D2
:10434000C1BF704737B502680D464168530F43EA55
:10435000C103D1000446080A8DF800108DF8010051
:10436000080C090E02F03F028DF80310190A372AD3
:104370008DF805104FEA134194BFC2F13802C2F123
:1043800078028DF802008DF804308DF806101B0EAF
:10439000204618498DF80730FFF7D0FF08226946FC
:1043A0002046FFF78FFFA3682B70A3681B0A6B7072
:1043B0006389AB70E37AEB70E3682B71E3681B0AE7
:1043C0006B71E389AB71E37BEB7123692B7223691A
:1043D0001B0A6B72638AAB72E37CEB7263692B73AB
:1043E00063691B0A6B73E38AAB73E37DEB7303B002
:1043F00030BD00BFDCAB020070B50E46054660B1B3
:10440000094C206848B162686B689A4203D1A96878
:1044100020F0C8F820B11434F3E76FF02D0070BD20
:104420002369336070BD00BFD8B2020070B50E467C
:10443000054660B1094C206848B162686B689A42D1
:1044400003D1A96820F0AEF820B11434F3E76FF07F
:104450002D0070BD237C337070BD00BF74B20200AC
:104460002DE9F04F8DB004AF169C06460D469146DF
:104470000021202238460DF130089A4620F0C7F876
:104480000023206848F8243DFFF778FB83465DB39E
:104490005D452B46204628BF5B460193FFF736FB60
:1044A000524649462046FFF73FFB0422414620463C
:1044B000FFF73AFB39462046FFF744FB019B3146A4
:1044C00000229A4208D011F801EBB85C8EEA000095
:1044D00001F8010C0132F4E79DF80F300133164466
:1044E0008DF80F30AD1AD2E70DB0BDE8F08F0000A7
:1044F00070B504460E4615460021B42220F087F818
:10450000C4F8A460C4F8A850064B0748074A0849F5
:1045100002F09AF9074B04F1AC001B68BDE870404B
:10452000184700BFD53B0000833B0000B33B0000B1
:104530009D3B000008000020026938B5044602B324
:10454000C369F3B11268D2071BD51B68DB0718D506
:1045500000F108052846FEF7A6F87F2811D928465D
:10456000FEF7A1F8B0F5005F0BD814342046FEF733
:104570009AF8012805D929462046FEF739FA00287D
:1045800001DB024838BD002038BD00BF00BEFFFF80
:104590002DE9F04186B0044603A80D461746FDF705
:1045A000D9FF214B04F1AC061B683046984790BBFD
:1045B0002946626803A8FEF79CF80546F0B904F1A5
:1045C0000805294603A8FEF713FA002814DA04F1B7
:1045D000680303A9D4F80480009304F114022B4665
:1045E0000846FEF7A0FD054640B94246394603A8F5
:1045F000FEF7B3F8054601E06FF003050B4B3046BC
:104600001B689847044640B903A8FDF7AAFF35B1D7
:10461000A5F5854403E0044601E06FF01D04204643
:1046200006B0BDE8F08100BF1000002004000020AB
:104630002DE9F04F1D4603698FB004460F4693469F
:10464000002B00F0D280836A002B00F0CE8005A8FA
:10465000FDF780FF08A8FDF77DFF0BA8FDF77AFFA7
:10466000684B04F1AC0A1B6850469847002840F09C
:10467000BE806268294605A8FEF73BF8034600287D
:1046800040F09E8004F10805294605A8FEF7B0F920
:10469000002880F2938077B904F1680305A900939C
:1046A00004F120022B460846FEF73DFD0346002894
:1046B00040F0868069E0D4F8A0300BB304F18C069A
:1046C000324631463046FEF7CBFA0346002877D112
:1046D0002A4631463046FEF7F6FC034600286FD1E5
:1046E00004F19806324631463046FEF7B9FA0346E1
:1046F000002865D12A4631463046FEF7E4FC32E018
:104700004FF00C0904F1980804F18C06B9F1010985
:1047100072D061685B463A4601394046FEF7A6FF13
:10472000034600284CD12A4641463046FEF719FF81
:104730000346002844D101213046FEF79EF90028A7
:10474000E4D12A4641463046FEF7A9FF0346002839
:1047500036D104F16803009304F114022B4631466C
:104760003046FEF7E0FC034650BB05A904F18C027D
:104770000846FEF775FA034610BB05A92A46084607
:10478000FEF7A1FC0346D8B986E737B962681899E5
:1047900005A8FDF7E2FF034612E005A904F198021F
:1047A0000846FEF75DFA034650B905A92A460846B1
:1047B000FEF789FC03460028E8D001E06FF0030310
:1047C000114A0393126850469047044688B905A8D9
:1047D000FDF7C7FE08A8FDF7C4FE0BA8FDF7C1FE54
:1047E000039B5BB1A3F5864408E0084C06E0044651
:1047F00004E06FF01D0401E0054BE1E720460FB037
:10480000BDE8F08F100000200400002080BFFFFFF3
:1048100080BBFFFF2DE9F04F8BB0012B81468B460B
:1048200003920493DDF8608005D1D0F8A430012B09
:1048300001D03E4877E0BBF1000FFAD099F8A8000C
:10484000FFF70AF902900028F3D0D9F80450FFF7D7
:1048500095F943000593169B420002331344169AC0
:104860009A420646E5D89D42E3D32A4600214046B7
:104870001FF0CDFE08F1010A002388F8003032460F
:1048800051460398D847044610B1A0F589404AE044
:104890000AEB06073B46159A14990298FFF760F950
:1048A000169B169A1799A81EC01A30447300C01A96
:1048B00001233B541844384407AF1FF082FE3846AA
:1048C000FFF7D6F8224602993846FFF7FBF8044670
:1048D00020B13846FFF7D1F8204624E0741C013D92
:1048E0004444AD1B33465246294620460097FFF705
:1048F000B7FD2B462246314650460097FFF7B0FDE4
:104900003846FFF7BAF8049B2BB942464146484661
:10491000FFF73EFE07E0CDF800804346039A594674
:104920004846FFF785FE0BB0BDE8F08F80BFFFFF64
:104930002DE9F74F9A46BAF1010F0746894693468B
:10494000DDF830800D9B0E9E03D1D0F8A420002A04
:1049500055D1B9F1000F52D0002B50D0002E4ED0BF
:1049600018F10B027C684AD2944248D33546033C86
:104970000022C8EB040405F8022BBAF1000F18D18D
:10498000022272702C44A5421CD0642200920122A3
:10499000294658460193C8472A78019B8ABB009A4A
:1049A000013A009202D1A0F589402EE00028EED015
:1049B000F9E7012272702C44FF22AC4202D005F8C4
:1049C000012BFAE72046002200F8012B1946424647
:1049D0001FF0F7FDBAF1000F07D1324631463846D5
:1049E00003B0BDE8F04FFFF7D3BD33465A46494602
:1049F00038460C9603B0BDE8F04FFFF719BE0448E7
:104A000003E00028CFD10135BDE703B0BDE8F08F4A
:104A100080BFFFFFF0B5D0F8A47087B00CAC70CCAD
:104A200057B1012F10D102940024049603950194EC
:104A30000094FFF7EFFE08E00E960D950C9407B07A
:104A4000BDE8F040FFF774BF014807B0F0BD00BFFC
:104A500000BFFFFF2DE9F04FADF24C4D012B044696
:104A60009DF8708405D1D0F8A400012801D05D48DC
:104A7000B4E06668A6F11000B0F57C7FF7D812ADFF
:104A800033B92A46DDF884142046FFF781FD05E09E
:104A90000095DDF884342046FFF7CAFD002840F079
:104AA0009D80771EEB5DBC2B40F09780B8F1000F26
:104AB00008D04046FEF7D0FF0028D8D0FFF75EF8B8
:104AC000CDF874049DF87C04FEF7C6FF83460028E9
:104AD000CDD0FFF753F80023814604F10800059379
:104AE0000693FDF7E0FD00F1FF3A1AF0070F08BF4B
:104AF0003E462A7800F10700A0EBC60014BFA84686
:104B00000DF1490802410392B1D107AC2046FEF7EE
:104B1000AFFF5946039A2046FEF7D4FF834620B1E3
:104B20002046FEF7AAFF584658E06FEA09013144D3
:104B30004B46009408EB01024046FFF791FCCAEB9C
:104B4000C60AFF2343FA0AFA2B780AEA030A85F811
:104B500000A02E44B045434604D21A7808F101085B
:104B6000002AF7D0B34203D05E1C1B78012B03D080
:104B70002046FEF782FF30E0DDF88034C9EB0707FE
:104B8000751B5A1CA7EB050501D09D42F0D12046AC
:104B9000FEF7BCFF082205A92046FEF7C5FFDDF899
:104BA0007424DDF878142046FEF7BEFF2A4631460D
:104BB0002046FEF7B9FF0AA92046FEF7C3FF2046AC
:104BC000FEF75BFF4A460AA970191FF0EBFC064B83
:104BD000002814BF1846002000E004480DF24C4D98
:104BE000BDE8F08F80BFFFFF80BCFFFF00BFFFFF6D
:104BF00070B5D0F8A84086B09DF828500CB1E4B24A
:104C000000E02C460D9E03940C9C059602944FF0F8
:104C1000FF360B9C049601940095FFF71BFF06B02E
:104C200070BD0000F0B5ADF2244D012B9DF8386445
:104C3000DDF83C7404D1D0F8A4400CB14D4896E0A6
:104C40004568A5F11004B4F57C7FF7D808AC2BB902
:104C50002246DDF84414FFF79BFC04E00094DDF8E5
:104C60004434FFF7E5FC002840F0818023780BB145
:104C700041487CE00DF1220304936378012BF7D1C6
:104C80006B1E23440498027832B19842F0D2FF2A76
:104C9000EED101300490F5E70130041B2D1BBD421D
:104CA000049008D13EB93A46DDF840141FF07AFC72
:104CB00000285BD010E03046FEF7CEFE0028BDD0C5
:104CC000FEF75CFF049C2C440746302303AA2146D0
:104CD00004A8FDF79FF908B1284848E0039B023378
:104CE0009D42F9D1302303AA214604A8FDF792F989
:104CF0000028F1D1039B06333B449D42ECD10623AF
:104D000006AA214604A8FDF785F90028E4D1049AF3
:104D1000069B079213440DF10B0105A80493FFF7BE
:104D200085FB0028D8D19DF80B30B342D4D10523A0
:104D300003AA214604A8FDF76DF90028CCD104236D
:104D400003AA214604A8FDF765F90028C4D1039BF6
:104D50009F42C1D1049DDDF840143A4628461FF019
:104D600021FC0028B8D12F44BC42B5D100200DF25F
:104D7000244DF0BD80BFFFFF00BFFFFF80BCFFFFE1
:104D8000F0B5D0F8A4E09DF8144006ADE0CDBEF13A
:104D9000000F0AD0BEF1010F0FD1089707960695B4
:104DA0000594BDE8F040FFF723BF089707960695E6
:104DB0000594BDE8F040FFF735BF0148F0BD00BFE6
:104DC00000BFFFFF10B504468C30FDF7CAFB04F1AD
:104DD0009800FDF7C6FB04F18000FDF7C2FB04F16B
:104DE0007400FDF7BEFB04F16800FDF7BAFB04F1A7
:104DF0005C00FDF7B6FB04F15000FDF7B2FB04F1D7
:104E00004400FDF7AEFB04F13800FDF7AAFB04F106
:104E10002C00FDF7A6FB04F12000FDF7A2FB04F136
:104E20001400FDF79EFB04F10800FDF79AFB044B0C
:104E300004F1AC001B689847BDE8104001F022BDAA
:104E40000C0000205C2200211FF0E1BB38B100F112
:104E50005C030022984202D002700130FAE77047EA
:104E6000002303604360094B836003F18833C36010
:104E700003F12943A3F59613A3F68B630361A3F112
:104E800088334361024B8361704700BF012345674C
:104E9000F0E1D2C32DE9F04F4B780A7891F808C0C1
:104EA00091F80C8091F814E00F7E1B0443EA026332
:104EB000CA7813438A7897B043EA022306934B7962
:104EC0000A7901901B0443EA0263CA7913438A7981
:104ED00043EA022307934B7A0A7C1B0443EA0C63E0
:104EE00091F80BC043EA0C0391F80AC043EA0C2C7A
:104EF0004B7B1B0443EA086391F80F8043EA0803E5
:104F000091F80E8043EA08284B7C1B0443EA0263B5
:104F1000CA7C13438A7C43EA02230E934B7D1B0415
:104F200043EA0E6391F817E043EA0E0391F816E0A6
:104F300043EA0E230F934B7E1B0443EA0763CF7EA5
:104F40000E7F91F8204091F8242091F82C003B43EB
:104F50008F7E43EA072310934B7F1B0443EA0663CB
:104F6000CE7F33438E7F43EA0623119391F821309D
:104F70001B0443EA046391F82340234391F8224041
:104F800043EA0423099391F825301B0443EA0263A2
:104F900091F82720134391F8262043EA02230A932D
:104FA00091F8293091F828201B0443EA026391F814
:104FB0002B20134391F82A2043EA02230B9391F804
:104FC0002D301B0443EA006391F82F00034391F84E
:104FD0002E0043EA00230C9391F8313091F8300011
:104FE0001B0443EA006391F83300034391F8320055
:104FF00043EA00230D9391F8353091F8349091F8FD
:1050000038201B0443EA096391F8379043EA090307
:1050100091F8369043EA0923029391F839301B0442
:1050200043EA026391F83B20134391F83A2043EAA4
:105030000223039391F83D3091F83C201B0443EA8E
:10504000026391F83F20134391F83E2043EA022384
:105050000493019B9B681293019BDB681493019B53
:105060001B690593019B5B691393019B139A9B69D1
:105070001593059B83EA020E149B1299119C0EEA6C
:10508000030E8EEA020EDD4B159A1A4402EBF16212
:105090009644069A9644149A4FEAB200059A82EA18
:1050A0000007059A0F405740139A1A441744079A6D
:1050B0004FEAB1011744059A80EA010909EA0E098D
:1050C0001A4407EBFE6762444FEABE0E89EA000904
:1050D000914481EA0E02C5183A4009EBF7694A404B
:1050E0004FEAB7074544C81815440E998EEA0702DF
:1050F00002EA090205EBF96582EA0E024FEAB909F4
:1051000008440F99104487EA0902CE182A407A40D1
:10511000764400EBF56016444FEAB505109A89EA2B
:10512000050101401A4406EBF06681EA09014FEAE5
:10513000B0003A440A4485EA000104EB030B314015
:1051400002EBF66269404FEAB606099CCB448B44F9
:1051500080EA060111401C4441402C440BEBF26BE9
:105160000C444FEAB2020A9986EA020505EA0B05E9
:1051700019447540014404EBFB6429444FEABB0B1E
:105180000B9D82EA0B0005EB030A204001EBF46162
:105190000C9D4FEAB4045040B24482448BEA0400B0
:1051A00005EB0309084080EA0B0091440AEBF16A21
:1051B00081444FEAB1010D9884EA010200EB030E2D
:1051C00002EA0A0209EBFA6902984FEABA0A624057
:1051D000DE44964481EA0A02C51802EA09020EEB8F
:1051E000F96E4A404FEAB9090398254415448AEA02
:1051F000090202EA0E02184405EBFE6582EA0A0281
:105200004FEABE0E084404990A9C104489EA0E0233
:10521000CF182A4082EA090257441744069A09998E
:1052200082EA0C024A40029900EBF5604A404FEADC
:10523000B5058EEA05014FEAF272069201401A4462
:1052400081EA0E014A440A44079981EA0801614053
:10525000039C61404FEAF171079107EBF067079CEF
:105260004FEAB00085EA0001E6183940694076440B
:105270000E440E998CEA010C0B998CEA010C0499EE
:105280008CEA010C4FEAFC71089102EBF762089C72
:105290004FEAB70780EA070111401C4441402C4403
:1052A0000C440F9988EA01080C9988EA01080699CC
:1052B00006EBF26688EA01084FEAB2024FEAF87894
:1052C00087EA0205354043447D400344E9181098BD
:1052D0000E9B4B4D83EA000C0D9B11988CEA030C3E
:1052E000079B8CEA030C4FEAFC7C04EBF6644FEA64
:1052F000B60682EA06030CEB050B6340BB449B44F5
:105300000F9B83EA000E029B8EEA030E089B8EEA37
:10531000030E4FEAFE7E01EBF4614FEAB40486EA25
:1053200004000EEB0503484013440344109A099807
:1053300082EA0007039A0A98574087EA08074FEA6B
:10534000F7770BEBF16B4FEAB10184EA010207EB4F
:10535000050A82EA0B02B2449244119A82EA0006DC
:10536000049A0B98564086EA0C064FEAF67603EB51
:10537000FB634FEABB0B81EA0B0206EB05095A40BF
:10538000A1449144099A82EA0004069A544084EAAE
:105390000E044FEAF472099209980AEBF36A4FEA95
:1053A000B3038BEA0302284482EA0A020844104449
:1053B0000C990A9A4A4007994A407A404FEAF27299
:1053C0000A920A9909EBFA694FEABA0A83EA0A02D1
:1053D000294482EA0902594411440B9A14460D9A51
:1053E0006240089C6240724000EBF9604FEAF27242
:1053F0004FEAB9090B928AEA090B03E09979825ABC
:10540000A1EBD96E2A44029C01EBF0618BEA000B00
:105410001A444FEAB0030C986040099C80EA0800E7
:1054200060404FEAF0700C900C9C89EA03005A44EB
:1054300004EB050B4840DA44039C82440D9860401D
:105440000A9C80EA0C0060404FEAF070029C0D90CC
:1054500028444844A146049C89EA04090B9C89EA33
:105460000E0989EA04094FEAF97402EBF16204EBD0
:1054700005094FEAB101029483EA010B069C9944A5
:10548000039B63400C9C7B4063404FEAF3730AEB41
:10549000F26A03938BEA020B4FEAB202039C584470
:1054A00081EA020B00EBFA608BEA0A0B4FEABA0AB8
:1054B00082EA0A03D94404EB050B43405944079C94
:1054C0001944049B63400D9C734063404FEAF3739F
:1054D00004932B44089C1344069A6240099C624042
:1054E000029C62404FEAF27209EBF06906924FEAC1
:1054F000B000069C8AEA000B01EBF9618BEA090B0C
:105500004FEAB90980EA09025B4404EB050B4A4003
:10551000079CDA4403EBF16392440AEBF36284EAFA
:10552000080A0A9C8AEA040A039C8AEA040A4FEAE7
:10553000FA744FEAB10104EB050B89EA010A5844F9
:105540008AEA030A8244089807940B9C80EA0C00BC
:105550006040049C60404FEAF0700890089C04EBA7
:10556000050B0C9C88EA0E084FEAB30388EA04088E
:10557000069C81EA0300504088EA0408D9440AEBFB
:10558000F26A4FEAF87B4FEAB202814409EBFA6013
:1055900083EA02080BEB050988EA0A0849444144FA
:1055A00001EBF0680D998CEA070C8CEA010C079965
:1055B0008CEA010C4FEAFC710E910E9C4FEABA0A7C
:1055C00004EB050C82EA0A01414063440B4403EBFF
:1055D000F861029B8EEA060E8EEA030E089B8EEAA5
:1055E000030E4FEAFE730F930F9C4FEAB00004EBDB
:1055F000050E8AEA000383EA080372441A4402EBA8
:10560000F163099A5740039A574087EA0B074FEA1C
:10561000F7721092109C67190A9C6640049C6640C1
:105620000E9C66404FEAF6744FEAB808254480EABB
:105630000802119428440B9C099D65402C46069D48
:105640004A404FEAB10188EA01066C400F9D5E4076
:10565000BA44924430446C40D54E0AEBF3624FEAB0
:10566000F4744FEAB303099442EA0305344400EBAF
:10567000F2600D40A04402EA03042C4308EBF068FA
:105680004FEAB20AA0440A9A0C9C6240079C62400E
:10569000109C62404FEAF2720A9240EA0A0202EA61
:1056A000030400EA0A0222430A9C344421444FEADC
:1056B000B00C11440D980B9A424008984240119842
:1056C00042404FEAF2720B9248EA0C00324401EB7E
:1056D000F86100EA0A00134408EA0C02024303EBF3
:1056E000F163134402980C9A5040099A80EA0B0027
:1056F0004FEAB80850404FEAF07241EA08000C92B5
:1057000000EA0C0001EA080210430C9A32445244A9
:10571000024402EBF36A03980D9A50400E9A5040EF
:105720000A9A50404FEAB1014FEAF072901943EAE9
:1057300001040D9204EA080403EA010260442243D2
:1057400000EBFA604FEAB3071044029B049A5340FF
:105750000F9A53400B9A53404FEAF3730293029A05
:105760004AEA070303EA010E0AEA07034EEA0303C3
:1057700002EB060EF0449844069A039B08EBF06E89
:1057800083EA0208109B88EA03080C9B88EA030856
:105790004FEAF8734FEABA099C19214440EA090418
:1057A00003933C4000EA09031C43049B079A83EAE5
:1057B000020C119B089A8CEA030C0D9B4FEAB00077
:1057C00001EBFE618CEA030C0C444FEAFC734EEAD9
:1057D0000001049301EA09010EEA00031943049B46
:1057E00033443B44CF18069B83EA0208099B88EAAE
:1057F0000308029B88EA03084FEAF8734FEABE01E8
:105800009A19914444EA01020693024004EA010312
:105810001A43079B83EA0B0C0A9B8CEA030C039B3D
:105820008CEA030C4FEAFC7307EBF46707934FEA2B
:10583000B40447EA0403079D03EA010C07EA0403E2
:105840004CEA030305EB060C09EBF76960444A4494
:10585000184400EBF26C089B0E9883EA00050B9B42
:105860005D40049B5D404FEAB70A4FEAF577BB19EC
:1058700042EA0A00194401EBFC63204002EA0A01F3
:10588000014319440F9B8BEA03090C9B89EA030926
:10589000069B4FEAB20289EA03094CEA02034FEA87
:1058A000F97E03EA0A050CEA02032B430EEB060518
:1058B00025441D44109C0E9B63400D9C6340079C37
:1058C00063404FEAF373089333444FEABC0005EB9F
:1058D000F1659A440AEBF56341EA000A01EA000423
:1058E0000AEA020A4AEA040A9A44119C0F9B63409E
:1058F000029C63404FEAB1017B4045EA01044FEA54
:10590000F3730E93044005EA01031C430E9B3344DA
:1059100013442344109A099C82EA0408039A88EAF3
:10592000020888EA0E084FEAF87202EB060803EB59
:10593000FA634FEAB505804408EBF3604AEA0508CC
:105940000F9208EA01080AEA050248EA02088044C0
:10595000119A0A9882EA000C049A8CEA020C089ABE
:105960008CEA020C4FEAFC724FEABA0A10921098C5
:1059700043EA0A0202EA050C03EA0A024CEA0202BE
:1059800000EB060C8C440B999444069A4C4054400E
:105990000E9A54404FEAF472099232440CEBF86CC0
:1059A0004FEAB303154405EBFC6248EA030501E046
:1059B000DCBC1B8F08EA030105EA0A050D43154408
:1059C0000C990A9A82EA010B079A0D998BEA020B4D
:1059D0000F9A4FEAB8088BEA020B4CEA08024FEA2A
:1059E000FB7B02EA03090CEA080249EA02020BEB1C
:1059F0000609D14491440B9A82EA010A8AEA070A0D
:105A00008AEA000A4FEAFA724FEABC0C0A92324460
:105A100009EBF56945EA0C011A4402EBF96301EA66
:105A2000080105EA0C020A431A4402990C9B83EA16
:105A30000100099B80EA0E0058404FEAF0730B9377
:105A40004FEAB5050B9949EA050000EA0C0009EA9E
:105A500005030E4446440343981903990D9BD84E01
:105A60005940089B594081EA0B014FEAF1730C93AE
:105A70000C994FEAB90985EA09033144534061445E
:105A80001944029B049C63400E9C63400A9C634043
:105A900000EBF2604FEAF3734FEAB202029389EA35
:105AA0000204334444402B442344069D039C84EA6F
:105AB00005080F9C88EA04080B9C88EA040801EB9F
:105AC000F0614FEAF8744FEAB000039482EA0005EF
:105AD00034444D404C442C44049DAC46079D8CEA14
